{
  "_format": "hh-sol-artifact-1",
  "contractName": "OnChainNFT",
  "sourceName": "contracts/nft.sol",
  "abi": [
    {
      "inputs": [],
      "stateMutability": "nonpayable",
      "type": "constructor"
    },
    {
      "inputs": [
        {
          "internalType": "address",
          "name": "sender",
          "type": "address"
        },
        {
          "internalType": "uint256",
          "name": "tokenId",
          "type": "uint256"
        },
        {
          "internalType": "address",
          "name": "owner",
          "type": "address"
        }
      ],
      "name": "ERC721IncorrectOwner",
      "type": "error"
    },
    {
      "inputs": [
        {
          "internalType": "address",
          "name": "operator",
          "type": "address"
        },
        {
          "internalType": "uint256",
          "name": "tokenId",
          "type": "uint256"
        }
      ],
      "name": "ERC721InsufficientApproval",
      "type": "error"
    },
    {
      "inputs": [
        {
          "internalType": "address",
          "name": "approver",
          "type": "address"
        }
      ],
      "name": "ERC721InvalidApprover",
      "type": "error"
    },
    {
      "inputs": [
        {
          "internalType": "address",
          "name": "operator",
          "type": "address"
        }
      ],
      "name": "ERC721InvalidOperator",
      "type": "error"
    },
    {
      "inputs": [
        {
          "internalType": "address",
          "name": "owner",
          "type": "address"
        }
      ],
      "name": "ERC721InvalidOwner",
      "type": "error"
    },
    {
      "inputs": [
        {
          "internalType": "address",
          "name": "receiver",
          "type": "address"
        }
      ],
      "name": "ERC721InvalidReceiver",
      "type": "error"
    },
    {
      "inputs": [
        {
          "internalType": "address",
          "name": "sender",
          "type": "address"
        }
      ],
      "name": "ERC721InvalidSender",
      "type": "error"
    },
    {
      "inputs": [
        {
          "internalType": "uint256",
          "name": "tokenId",
          "type": "uint256"
        }
      ],
      "name": "ERC721NonexistentToken",
      "type": "error"
    },
    {
      "inputs": [
        {
          "internalType": "address",
          "name": "owner",
          "type": "address"
        }
      ],
      "name": "OwnableInvalidOwner",
      "type": "error"
    },
    {
      "inputs": [
        {
          "internalType": "address",
          "name": "account",
          "type": "address"
        }
      ],
      "name": "OwnableUnauthorizedAccount",
      "type": "error"
    },
    {
      "anonymous": false,
      "inputs": [
        {
          "indexed": true,
          "internalType": "address",
          "name": "owner",
          "type": "address"
        },
        {
          "indexed": true,
          "internalType": "address",
          "name": "approved",
          "type": "address"
        },
        {
          "indexed": true,
          "internalType": "uint256",
          "name": "tokenId",
          "type": "uint256"
        }
      ],
      "name": "Approval",
      "type": "event"
    },
    {
      "anonymous": false,
      "inputs": [
        {
          "indexed": true,
          "internalType": "address",
          "name": "owner",
          "type": "address"
        },
        {
          "indexed": true,
          "internalType": "address",
          "name": "operator",
          "type": "address"
        },
        {
          "indexed": false,
          "internalType": "bool",
          "name": "approved",
          "type": "bool"
        }
      ],
      "name": "ApprovalForAll",
      "type": "event"
    },
    {
      "anonymous": false,
      "inputs": [
        {
          "indexed": true,
          "internalType": "address",
          "name": "previousOwner",
          "type": "address"
        },
        {
          "indexed": true,
          "internalType": "address",
          "name": "newOwner",
          "type": "address"
        }
      ],
      "name": "OwnershipTransferred",
      "type": "event"
    },
    {
      "anonymous": false,
      "inputs": [
        {
          "indexed": true,
          "internalType": "address",
          "name": "from",
          "type": "address"
        },
        {
          "indexed": true,
          "internalType": "address",
          "name": "to",
          "type": "address"
        },
        {
          "indexed": true,
          "internalType": "uint256",
          "name": "tokenId",
          "type": "uint256"
        }
      ],
      "name": "Transfer",
      "type": "event"
    },
    {
      "inputs": [
        {
          "internalType": "address",
          "name": "to",
          "type": "address"
        },
        {
          "internalType": "uint256",
          "name": "tokenId",
          "type": "uint256"
        }
      ],
      "name": "approve",
      "outputs": [],
      "stateMutability": "nonpayable",
      "type": "function"
    },
    {
      "inputs": [
        {
          "internalType": "address",
          "name": "owner",
          "type": "address"
        }
      ],
      "name": "balanceOf",
      "outputs": [
        {
          "internalType": "uint256",
          "name": "",
          "type": "uint256"
        }
      ],
      "stateMutability": "view",
      "type": "function"
    },
    {
      "inputs": [
        {
          "internalType": "uint256",
          "name": "tokenId",
          "type": "uint256"
        }
      ],
      "name": "getApproved",
      "outputs": [
        {
          "internalType": "address",
          "name": "",
          "type": "address"
        }
      ],
      "stateMutability": "view",
      "type": "function"
    },
    {
      "inputs": [
        {
          "internalType": "address",
          "name": "owner",
          "type": "address"
        },
        {
          "internalType": "address",
          "name": "operator",
          "type": "address"
        }
      ],
      "name": "isApprovedForAll",
      "outputs": [
        {
          "internalType": "bool",
          "name": "",
          "type": "bool"
        }
      ],
      "stateMutability": "view",
      "type": "function"
    },
    {
      "inputs": [],
      "name": "mint",
      "outputs": [],
      "stateMutability": "nonpayable",
      "type": "function"
    },
    {
      "inputs": [],
      "name": "name",
      "outputs": [
        {
          "internalType": "string",
          "name": "",
          "type": "string"
        }
      ],
      "stateMutability": "view",
      "type": "function"
    },
    {
      "inputs": [],
      "name": "owner",
      "outputs": [
        {
          "internalType": "address",
          "name": "",
          "type": "address"
        }
      ],
      "stateMutability": "view",
      "type": "function"
    },
    {
      "inputs": [
        {
          "internalType": "uint256",
          "name": "tokenId",
          "type": "uint256"
        }
      ],
      "name": "ownerOf",
      "outputs": [
        {
          "internalType": "address",
          "name": "",
          "type": "address"
        }
      ],
      "stateMutability": "view",
      "type": "function"
    },
    {
      "inputs": [],
      "name": "renounceOwnership",
      "outputs": [],
      "stateMutability": "nonpayable",
      "type": "function"
    },
    {
      "inputs": [
        {
          "internalType": "address",
          "name": "from",
          "type": "address"
        },
        {
          "internalType": "address",
          "name": "to",
          "type": "address"
        },
        {
          "internalType": "uint256",
          "name": "tokenId",
          "type": "uint256"
        }
      ],
      "name": "safeTransferFrom",
      "outputs": [],
      "stateMutability": "nonpayable",
      "type": "function"
    },
    {
      "inputs": [
        {
          "internalType": "address",
          "name": "from",
          "type": "address"
        },
        {
          "internalType": "address",
          "name": "to",
          "type": "address"
        },
        {
          "internalType": "uint256",
          "name": "tokenId",
          "type": "uint256"
        },
        {
          "internalType": "bytes",
          "name": "data",
          "type": "bytes"
        }
      ],
      "name": "safeTransferFrom",
      "outputs": [],
      "stateMutability": "nonpayable",
      "type": "function"
    },
    {
      "inputs": [
        {
          "internalType": "address",
          "name": "operator",
          "type": "address"
        },
        {
          "internalType": "bool",
          "name": "approved",
          "type": "bool"
        }
      ],
      "name": "setApprovalForAll",
      "outputs": [],
      "stateMutability": "nonpayable",
      "type": "function"
    },
    {
      "inputs": [
        {
          "internalType": "bytes4",
          "name": "interfaceId",
          "type": "bytes4"
        }
      ],
      "name": "supportsInterface",
      "outputs": [
        {
          "internalType": "bool",
          "name": "",
          "type": "bool"
        }
      ],
      "stateMutability": "view",
      "type": "function"
    },
    {
      "inputs": [],
      "name": "symbol",
      "outputs": [
        {
          "internalType": "string",
          "name": "",
          "type": "string"
        }
      ],
      "stateMutability": "view",
      "type": "function"
    },
    {
      "inputs": [
        {
          "internalType": "uint256",
          "name": "tokenId",
          "type": "uint256"
        }
      ],
      "name": "tokenURI",
      "outputs": [
        {
          "internalType": "string",
          "name": "",
          "type": "string"
        }
      ],
      "stateMutability": "view",
      "type": "function"
    },
    {
      "inputs": [
        {
          "internalType": "address",
          "name": "from",
          "type": "address"
        },
        {
          "internalType": "address",
          "name": "to",
          "type": "address"
        },
        {
          "internalType": "uint256",
          "name": "tokenId",
          "type": "uint256"
        }
      ],
      "name": "transferFrom",
      "outputs": [],
      "stateMutability": "nonpayable",
      "type": "function"
    },
    {
      "inputs": [
        {
          "internalType": "address",
          "name": "newOwner",
          "type": "address"
        }
      ],
      "name": "transferOwnership",
      "outputs": [],
      "stateMutability": "nonpayable",
      "type": "function"
    }
  ],
  "bytecode": "0x608060405234801561001057600080fd5b50336040518060400160405280600681526020017f4a6f654e465400000000000000000000000000000000000000000000000000008152506040518060400160405280600481526020017f4a4e465400000000000000000000000000000000000000000000000000000000815250816000908161008d919061043d565b50806001908161009d919061043d565b505050600073ffffffffffffffffffffffffffffffffffffffff168173ffffffffffffffffffffffffffffffffffffffff16036101125760006040517f1e4fbdf70000000000000000000000000000000000000000000000000000000081526004016101099190610550565b60405180910390fd5b6101218161012760201b60201c565b5061056b565b6000600660009054906101000a900473ffffffffffffffffffffffffffffffffffffffff16905081600660006101000a81548173ffffffffffffffffffffffffffffffffffffffff021916908373ffffffffffffffffffffffffffffffffffffffff1602179055508173ffffffffffffffffffffffffffffffffffffffff168173ffffffffffffffffffffffffffffffffffffffff167f8be0079c531659141344cd1fd0a4f28419497f9722a3daafe3b4186f6b6457e060405160405180910390a35050565b600081519050919050565b7f4e487b7100000000000000000000000000000000000000000000000000000000600052604160045260246000fd5b7f4e487b7100000000000000000000000000000000000000000000000000000000600052602260045260246000fd5b6000600282049050600182168061026e57607f821691505b60208210810361028157610280610227565b5b50919050565b60008190508160005260206000209050919050565b60006020601f8301049050919050565b600082821b905092915050565b6000600883026102e97fffffffffffffffffffffffffffffffffffffffffffffffffffffffffffffffff826102ac565b6102f386836102ac565b95508019841693508086168417925050509392505050565b6000819050919050565b6000819050919050565b600061033a6103356103308461030b565b610315565b61030b565b9050919050565b6000819050919050565b6103548361031f565b61036861036082610341565b8484546102b9565b825550505050565b600090565b61037d610370565b61038881848461034b565b505050565b5b818110156103ac576103a1600082610375565b60018101905061038e565b5050565b601f8211156103f1576103c281610287565b6103cb8461029c565b810160208510156103da578190505b6103ee6103e68561029c565b83018261038d565b50505b505050565b600082821c905092915050565b6000610414600019846008026103f6565b1980831691505092915050565b600061042d8383610403565b9150826002028217905092915050565b610446826101ed565b67ffffffffffffffff81111561045f5761045e6101f8565b5b6104698254610256565b6104748282856103b0565b600060209050601f8311600181146104a75760008415610495578287015190505b61049f8582610421565b865550610507565b601f1984166104b586610287565b60005b828110156104dd578489015182556001820191506020850194506020810190506104b8565b868310156104fa57848901516104f6601f891682610403565b8355505b6001600288020188555050505b505050505050565b600073ffffffffffffffffffffffffffffffffffffffff82169050919050565b600061053a8261050f565b9050919050565b61054a8161052f565b82525050565b60006020820190506105656000830184610541565b92915050565b6129e88061057a6000396000f3fe608060405234801561001057600080fd5b506004361061010b5760003560e01c806370a08231116100a2578063a22cb46511610071578063a22cb46514610292578063b88d4fde146102ae578063c87b56dd146102ca578063e985e9c5146102fa578063f2fde38b1461032a5761010b565b806370a082311461021c578063715018a61461024c5780638da5cb5b1461025657806395d89b41146102745761010b565b80631249c58b116100de5780631249c58b146101aa57806323b872dd146101b457806342842e0e146101d05780636352211e146101ec5761010b565b806301ffc9a71461011057806306fdde0314610140578063081812fc1461015e578063095ea7b31461018e575b600080fd5b61012a60048036038101906101259190611b9d565b610346565b6040516101379190611be5565b60405180910390f35b610148610428565b6040516101559190611c90565b60405180910390f35b61017860048036038101906101739190611ce8565b6104ba565b6040516101859190611d56565b60405180910390f35b6101a860048036038101906101a39190611d9d565b6104d6565b005b6101b26104ec565b005b6101ce60048036038101906101c99190611ddd565b610514565b005b6101ea60048036038101906101e59190611ddd565b610616565b005b61020660048036038101906102019190611ce8565b610636565b6040516102139190611d56565b60405180910390f35b61023660048036038101906102319190611e30565b610648565b6040516102439190611e6c565b60405180910390f35b610254610702565b005b61025e610716565b60405161026b9190611d56565b60405180910390f35b61027c610740565b6040516102899190611c90565b60405180910390f35b6102ac60048036038101906102a79190611eb3565b6107d2565b005b6102c860048036038101906102c39190612028565b6107e8565b005b6102e460048036038101906102df9190611ce8565b61080d565b6040516102f19190611c90565b60405180910390f35b610314600480360381019061030f91906120ab565b610953565b6040516103219190611be5565b60405180910390f35b610344600480360381019061033f9190611e30565b6109e7565b005b60007f80ac58cd000000000000000000000000000000000000000000000000000000007bffffffffffffffffffffffffffffffffffffffffffffffffffffffff1916827bffffffffffffffffffffffffffffffffffffffffffffffffffffffff1916148061041157507f5b5e139f000000000000000000000000000000000000000000000000000000007bffffffffffffffffffffffffffffffffffffffffffffffffffffffff1916827bffffffffffffffffffffffffffffffffffffffffffffffffffffffff1916145b80610421575061042082610a6d565b5b9050919050565b6060600080546104379061211a565b80601f01602080910402602001604051908101604052809291908181526020018280546104639061211a565b80156104b05780601f10610485576101008083540402835291602001916104b0565b820191906000526020600020905b81548152906001019060200180831161049357829003601f168201915b5050505050905090565b60006104c582610ad7565b506104cf82610b5f565b9050919050565b6104e882826104e3610b9c565b610ba4565b5050565b6001600760008282546104ff919061217a565b9250508190555061051233600754610bb6565b565b600073ffffffffffffffffffffffffffffffffffffffff168273ffffffffffffffffffffffffffffffffffffffff16036105865760006040517f64a0ae9200000000000000000000000000000000000000000000000000000000815260040161057d9190611d56565b60405180910390fd5b600061059a8383610595610b9c565b610bd4565b90508373ffffffffffffffffffffffffffffffffffffffff168173ffffffffffffffffffffffffffffffffffffffff1614610610578382826040517f64283d7b000000000000000000000000000000000000000000000000000000008152600401610607939291906121ae565b60405180910390fd5b50505050565b610631838383604051806020016040528060008152506107e8565b505050565b600061064182610ad7565b9050919050565b60008073ffffffffffffffffffffffffffffffffffffffff168273ffffffffffffffffffffffffffffffffffffffff16036106bb5760006040517f89c62b640000000000000000000000000000000000000000000000000000000081526004016106b29190611d56565b60405180910390fd5b600360008373ffffffffffffffffffffffffffffffffffffffff1673ffffffffffffffffffffffffffffffffffffffff168152602001908152602001600020549050919050565b61070a610dee565b6107146000610e75565b565b6000600660009054906101000a900473ffffffffffffffffffffffffffffffffffffffff16905090565b60606001805461074f9061211a565b80601f016020809104026020016040519081016040528092919081815260200182805461077b9061211a565b80156107c85780601f1061079d576101008083540402835291602001916107c8565b820191906000526020600020905b8154815290600101906020018083116107ab57829003601f168201915b5050505050905090565b6107e46107dd610b9c565b8383610f3b565b5050565b6107f3848484610514565b6108076107fe610b9c565b858585856110aa565b50505050565b6060600073ffffffffffffffffffffffffffffffffffffffff1661083083610636565b73ffffffffffffffffffffffffffffffffffffffff1603610886576040517f08c379a000000000000000000000000000000000000000000000000000000000815260040161087d90612231565b60405180910390fd5b60006108918361125b565b6040516020016108a191906122d9565b604051602081830303815290604052905060006040518060400160405280601781526020017f5468697320697320616e206f6e2d636861696e204e4654000000000000000000815250905060006108f6611329565b9050600083838360405160200161090f93929190612477565b604051602081830303815290604052905061092981611379565b6040516020016109399190612536565b604051602081830303815290604052945050505050919050565b6000600560008473ffffffffffffffffffffffffffffffffffffffff1673ffffffffffffffffffffffffffffffffffffffff16815260200190815260200160002060008373ffffffffffffffffffffffffffffffffffffffff1673ffffffffffffffffffffffffffffffffffffffff16815260200190815260200160002060009054906101000a900460ff16905092915050565b6109ef610dee565b600073ffffffffffffffffffffffffffffffffffffffff168173ffffffffffffffffffffffffffffffffffffffff1603610a615760006040517f1e4fbdf7000000000000000000000000000000000000000000000000000000008152600401610a589190611d56565b60405180910390fd5b610a6a81610e75565b50565b60007f01ffc9a7000000000000000000000000000000000000000000000000000000007bffffffffffffffffffffffffffffffffffffffffffffffffffffffff1916827bffffffffffffffffffffffffffffffffffffffffffffffffffffffff1916149050919050565b600080610ae3836113a6565b9050600073ffffffffffffffffffffffffffffffffffffffff168173ffffffffffffffffffffffffffffffffffffffff1603610b5657826040517f7e273289000000000000000000000000000000000000000000000000000000008152600401610b4d9190611e6c565b60405180910390fd5b80915050919050565b60006004600083815260200190815260200160002060009054906101000a900473ffffffffffffffffffffffffffffffffffffffff169050919050565b600033905090565b610bb183838360016113e3565b505050565b610bd08282604051806020016040528060008152506115a8565b5050565b600080610be0846113a6565b9050600073ffffffffffffffffffffffffffffffffffffffff168373ffffffffffffffffffffffffffffffffffffffff1614610c2257610c218184866115cc565b5b600073ffffffffffffffffffffffffffffffffffffffff168173ffffffffffffffffffffffffffffffffffffffff1614610cb357610c646000856000806113e3565b6001600360008373ffffffffffffffffffffffffffffffffffffffff1673ffffffffffffffffffffffffffffffffffffffff168152602001908152602001600020600082825403925050819055505b600073ffffffffffffffffffffffffffffffffffffffff168573ffffffffffffffffffffffffffffffffffffffff1614610d36576001600360008773ffffffffffffffffffffffffffffffffffffffff1673ffffffffffffffffffffffffffffffffffffffff168152602001908152602001600020600082825401925050819055505b846002600086815260200190815260200160002060006101000a81548173ffffffffffffffffffffffffffffffffffffffff021916908373ffffffffffffffffffffffffffffffffffffffff160217905550838573ffffffffffffffffffffffffffffffffffffffff168273ffffffffffffffffffffffffffffffffffffffff167fddf252ad1be2c89b69c2b068fc378daa952ba7f163c4a11628f55a4df523b3ef60405160405180910390a4809150509392505050565b610df6610b9c565b73ffffffffffffffffffffffffffffffffffffffff16610e14610716565b73ffffffffffffffffffffffffffffffffffffffff1614610e7357610e37610b9c565b6040517f118cdaa7000000000000000000000000000000000000000000000000000000008152600401610e6a9190611d56565b60405180910390fd5b565b6000600660009054906101000a900473ffffffffffffffffffffffffffffffffffffffff16905081600660006101000a81548173ffffffffffffffffffffffffffffffffffffffff021916908373ffffffffffffffffffffffffffffffffffffffff1602179055508173ffffffffffffffffffffffffffffffffffffffff168173ffffffffffffffffffffffffffffffffffffffff167f8be0079c531659141344cd1fd0a4f28419497f9722a3daafe3b4186f6b6457e060405160405180910390a35050565b600073ffffffffffffffffffffffffffffffffffffffff168273ffffffffffffffffffffffffffffffffffffffff1603610fac57816040517f5b08ba18000000000000000000000000000000000000000000000000000000008152600401610fa39190611d56565b60405180910390fd5b80600560008573ffffffffffffffffffffffffffffffffffffffff1673ffffffffffffffffffffffffffffffffffffffff16815260200190815260200160002060008473ffffffffffffffffffffffffffffffffffffffff1673ffffffffffffffffffffffffffffffffffffffff16815260200190815260200160002060006101000a81548160ff0219169083151502179055508173ffffffffffffffffffffffffffffffffffffffff168373ffffffffffffffffffffffffffffffffffffffff167f17307eab39ab6107e8899845ad3d59bd9653f200f220920489ca2b5937696c318360405161109d9190611be5565b60405180910390a3505050565b60008373ffffffffffffffffffffffffffffffffffffffff163b1115611254578273ffffffffffffffffffffffffffffffffffffffff1663150b7a02868685856040518563ffffffff1660e01b815260040161110994939291906125ad565b6020604051808303816000875af192505050801561114557506040513d601f19601f82011682018060405250810190611142919061260e565b60015b6111c9573d8060008114611175576040519150601f19603f3d011682016040523d82523d6000602084013e61117a565b606091505b5060008151036111c157836040517f64a0ae920000000000000000000000000000000000000000000000000000000081526004016111b89190611d56565b60405180910390fd5b805181602001fd5b63150b7a0260e01b7bffffffffffffffffffffffffffffffffffffffffffffffffffffffff1916817bffffffffffffffffffffffffffffffffffffffffffffffffffffffff19161461125257836040517f64a0ae920000000000000000000000000000000000000000000000000000000081526004016112499190611d56565b60405180910390fd5b505b5050505050565b60606000600161126a84611690565b01905060008167ffffffffffffffff81111561128957611288611efd565b5b6040519080825280601f01601f1916602001820160405280156112bb5781602001600182028036833780820191505090505b509050600082602001820190505b60011561131e578080600190039150507f3031323334353637383961626364656600000000000000000000000000000000600a86061a8153600a85816113125761131161263b565b5b049450600085036112c9575b819350505050919050565b606060006040518061022001604052806101fe81526020016127756101fe9139905061135481611379565b60405160200161136491906126b6565b60405160208183030381529060405291505090565b606061139f826040518060600160405280604081526020016129736040913960016117e3565b9050919050565b60006002600083815260200190815260200160002060009054906101000a900473ffffffffffffffffffffffffffffffffffffffff169050919050565b808061141c5750600073ffffffffffffffffffffffffffffffffffffffff168273ffffffffffffffffffffffffffffffffffffffff1614155b1561155057600061142c84610ad7565b9050600073ffffffffffffffffffffffffffffffffffffffff168373ffffffffffffffffffffffffffffffffffffffff161415801561149757508273ffffffffffffffffffffffffffffffffffffffff168173ffffffffffffffffffffffffffffffffffffffff1614155b80156114aa57506114a88184610953565b155b156114ec57826040517fa9fbf51f0000000000000000000000000000000000000000000000000000000081526004016114e39190611d56565b60405180910390fd5b811561154e57838573ffffffffffffffffffffffffffffffffffffffff168273ffffffffffffffffffffffffffffffffffffffff167f8c5be1e5ebec7d5bd14f71427d1e84f3dd0314c0f7b2291e5b200ac8c7c3b92560405160405180910390a45b505b836004600085815260200190815260200160002060006101000a81548173ffffffffffffffffffffffffffffffffffffffff021916908373ffffffffffffffffffffffffffffffffffffffff16021790555050505050565b6115b28383611977565b6115c76115bd610b9c565b60008585856110aa565b505050565b6115d7838383611a70565b61168b57600073ffffffffffffffffffffffffffffffffffffffff168373ffffffffffffffffffffffffffffffffffffffff160361164c57806040517f7e2732890000000000000000000000000000000000000000000000000000000081526004016116439190611e6c565b60405180910390fd5b81816040517f177e802f0000000000000000000000000000000000000000000000000000000081526004016116829291906126d8565b60405180910390fd5b505050565b600080600090507a184f03e93ff9f4daa797ed6e38ed64bf6a1f01000000000000000083106116ee577a184f03e93ff9f4daa797ed6e38ed64bf6a1f01000000000000000083816116e4576116e361263b565b5b0492506040810190505b6d04ee2d6d415b85acef8100000000831061172b576d04ee2d6d415b85acef810000000083816117215761172061263b565b5b0492506020810190505b662386f26fc10000831061175a57662386f26fc1000083816117505761174f61263b565b5b0492506010810190505b6305f5e1008310611783576305f5e10083816117795761177861263b565b5b0492506008810190505b61271083106117a857612710838161179e5761179d61263b565b5b0492506004810190505b606483106117cb57606483816117c1576117c061263b565b5b0492506002810190505b600a83106117da576001810190505b80915050919050565b6060600084510361180557604051806020016040528060008152509050611970565b60008261183757600360028651600461181e9190612701565b611828919061217a565b6118329190612743565b61185e565b600360028651611847919061217a565b6118519190612743565b600461185d9190612701565b5b905060008167ffffffffffffffff81111561187c5761187b611efd565b5b6040519080825280601f01601f1916602001820160405280156118ae5781602001600182028036833780820191505090505b50905060018501602082018788518901602081018051600082525b82841015611924576003840193508351603f8160121c168701518653600186019550603f81600c1c168701518653600186019550603f8160061c168701518653600186019550603f81168701518653600186019550506118c9565b80825289156119645760038c510660018114611947576002811461195a57611962565b603d6001870353603d6002870353611962565b603d60018703535b505b50505050505080925050505b9392505050565b600073ffffffffffffffffffffffffffffffffffffffff168273ffffffffffffffffffffffffffffffffffffffff16036119e95760006040517f64a0ae920000000000000000000000000000000000000000000000000000000081526004016119e09190611d56565b60405180910390fd5b60006119f783836000610bd4565b9050600073ffffffffffffffffffffffffffffffffffffffff168173ffffffffffffffffffffffffffffffffffffffff1614611a6b5760006040517f73c6ac6e000000000000000000000000000000000000000000000000000000008152600401611a629190611d56565b60405180910390fd5b505050565b60008073ffffffffffffffffffffffffffffffffffffffff168373ffffffffffffffffffffffffffffffffffffffff1614158015611b2857508273ffffffffffffffffffffffffffffffffffffffff168473ffffffffffffffffffffffffffffffffffffffff161480611ae95750611ae88484610953565b5b80611b2757508273ffffffffffffffffffffffffffffffffffffffff16611b0f83610b5f565b73ffffffffffffffffffffffffffffffffffffffff16145b5b90509392505050565b6000604051905090565b600080fd5b600080fd5b60007fffffffff0000000000000000000000000000000000000000000000000000000082169050919050565b611b7a81611b45565b8114611b8557600080fd5b50565b600081359050611b9781611b71565b92915050565b600060208284031215611bb357611bb2611b3b565b5b6000611bc184828501611b88565b91505092915050565b60008115159050919050565b611bdf81611bca565b82525050565b6000602082019050611bfa6000830184611bd6565b92915050565b600081519050919050565b600082825260208201905092915050565b60005b83811015611c3a578082015181840152602081019050611c1f565b60008484015250505050565b6000601f19601f8301169050919050565b6000611c6282611c00565b611c6c8185611c0b565b9350611c7c818560208601611c1c565b611c8581611c46565b840191505092915050565b60006020820190508181036000830152611caa8184611c57565b905092915050565b6000819050919050565b611cc581611cb2565b8114611cd057600080fd5b50565b600081359050611ce281611cbc565b92915050565b600060208284031215611cfe57611cfd611b3b565b5b6000611d0c84828501611cd3565b91505092915050565b600073ffffffffffffffffffffffffffffffffffffffff82169050919050565b6000611d4082611d15565b9050919050565b611d5081611d35565b82525050565b6000602082019050611d6b6000830184611d47565b92915050565b611d7a81611d35565b8114611d8557600080fd5b50565b600081359050611d9781611d71565b92915050565b60008060408385031215611db457611db3611b3b565b5b6000611dc285828601611d88565b9250506020611dd385828601611cd3565b9150509250929050565b600080600060608486031215611df657611df5611b3b565b5b6000611e0486828701611d88565b9350506020611e1586828701611d88565b9250506040611e2686828701611cd3565b9150509250925092565b600060208284031215611e4657611e45611b3b565b5b6000611e5484828501611d88565b91505092915050565b611e6681611cb2565b82525050565b6000602082019050611e816000830184611e5d565b92915050565b611e9081611bca565b8114611e9b57600080fd5b50565b600081359050611ead81611e87565b92915050565b60008060408385031215611eca57611ec9611b3b565b5b6000611ed885828601611d88565b9250506020611ee985828601611e9e565b9150509250929050565b600080fd5b600080fd5b7f4e487b7100000000000000000000000000000000000000000000000000000000600052604160045260246000fd5b611f3582611c46565b810181811067ffffffffffffffff82111715611f5457611f53611efd565b5b80604052505050565b6000611f67611b31565b9050611f738282611f2c565b919050565b600067ffffffffffffffff821115611f9357611f92611efd565b5b611f9c82611c46565b9050602081019050919050565b82818337600083830152505050565b6000611fcb611fc684611f78565b611f5d565b905082815260208101848484011115611fe757611fe6611ef8565b5b611ff2848285611fa9565b509392505050565b600082601f83011261200f5761200e611ef3565b5b813561201f848260208601611fb8565b91505092915050565b6000806000806080858703121561204257612041611b3b565b5b600061205087828801611d88565b945050602061206187828801611d88565b935050604061207287828801611cd3565b925050606085013567ffffffffffffffff81111561209357612092611b40565b5b61209f87828801611ffa565b91505092959194509250565b600080604083850312156120c2576120c1611b3b565b5b60006120d085828601611d88565b92505060206120e185828601611d88565b9150509250929050565b7f4e487b7100000000000000000000000000000000000000000000000000000000600052602260045260246000fd5b6000600282049050600182168061213257607f821691505b602082108103612145576121446120eb565b5b50919050565b7f4e487b7100000000000000000000000000000000000000000000000000000000600052601160045260246000fd5b600061218582611cb2565b915061219083611cb2565b92508282019050808211156121a8576121a761214b565b5b92915050565b60006060820190506121c36000830186611d47565b6121d06020830185611e5d565b6121dd6040830184611d47565b949350505050565b7f546f6b656e20646f6573206e6f74206578697374000000000000000000000000600082015250565b600061221b601483611c0b565b9150612226826121e5565b602082019050919050565b6000602082019050818103600083015261224a8161220e565b9050919050565b600081905092915050565b7f4d61794c6f72644e465420230000000000000000000000000000000000000000600082015250565b6000612292600c83612251565b915061229d8261225c565b600c82019050919050565b60006122b382611c00565b6122bd8185612251565b93506122cd818560208601611c1c565b80840191505092915050565b60006122e482612285565b91506122f082846122a8565b915081905092915050565b7f7b226e616d65223a220000000000000000000000000000000000000000000000600082015250565b6000612331600983612251565b915061233c826122fb565b600982019050919050565b7f222c000000000000000000000000000000000000000000000000000000000000600082015250565b600061237d600283612251565b915061238882612347565b600282019050919050565b7f226465736372697074696f6e223a220000000000000000000000000000000000600082015250565b60006123c9600f83612251565b91506123d482612393565b600f82019050919050565b7f22696d616765223a220000000000000000000000000000000000000000000000600082015250565b6000612415600983612251565b9150612420826123df565b600982019050919050565b7f227d000000000000000000000000000000000000000000000000000000000000600082015250565b6000612461600283612251565b915061246c8261242b565b600282019050919050565b600061248282612324565b915061248e82866122a8565b915061249982612370565b91506124a4826123bc565b91506124b082856122a8565b91506124bb82612370565b91506124c682612408565b91506124d282846122a8565b91506124dd82612454565b9150819050949350505050565b7f646174613a6170706c69636174696f6e2f6a736f6e3b6261736536342c000000600082015250565b6000612520601d83612251565b915061252b826124ea565b601d82019050919050565b600061254182612513565b915061254d82846122a8565b915081905092915050565b600081519050919050565b600082825260208201905092915050565b600061257f82612558565b6125898185612563565b9350612599818560208601611c1c565b6125a281611c46565b840191505092915050565b60006080820190506125c26000830187611d47565b6125cf6020830186611d47565b6125dc6040830185611e5d565b81810360608301526125ee8184612574565b905095945050505050565b60008151905061260881611b71565b92915050565b60006020828403121561262457612623611b3b565b5b6000612632848285016125f9565b91505092915050565b7f4e487b7100000000000000000000000000000000000000000000000000000000600052601260045260246000fd5b7f646174613a696d6167652f7376672b786d6c3b6261736536342c000000000000600082015250565b60006126a0601a83612251565b91506126ab8261266a565b601a82019050919050565b60006126c182612693565b91506126cd82846122a8565b915081905092915050565b60006040820190506126ed6000830185611d47565b6126fa6020830184611e5d565b9392505050565b600061270c82611cb2565b915061271783611cb2565b925082820261272581611cb2565b9150828204841483151761273c5761273b61214b565b5b5092915050565b600061274e82611cb2565b915061275983611cb2565b9250826127695761276861263b565b5b82820490509291505056fe3c7376672077696474683d2232303022206865696768743d2236302220786d6c6e733d22687474703a2f2f7777772e77332e6f72672f323030302f737667223e3c7374796c653e74657874207b207061696e742d6f726465723a207374726f6b653b207374726f6b653a2077686974653b207374726f6b652d77696474683a203270783b2066696c6c3a20626c61636b3b20746578742d616e63686f723a206d6964646c653b20646f6d696e616e742d626173656c696e653a2063656e7472616c3b207d3c2f7374796c653e3c646566733e3c6c696e6561724772616469656e742069643d226772616469656e74222078313d223025222078323d2231303025222079313d223025222079323d223025223e3c73746f70206f66667365743d223025222073746f702d636f6c6f723d2223303066373665222f3e3c73746f70206f66667365743d2231303025222073746f702d636f6c6f723d2223663437373465222f3e3c2f6c696e6561724772616469656e743e3c2f646566733e3c726563742077696474683d223130302522206865696768743d2231303025222072783d223130222072793d223130222066696c6c3d2275726c28236772616469656e7429222f3e3c7465787420783d223530252220793d223530252220666f6e742d73697a653d2232317078223e4a6f654e46543c2f746578743e3c2f7376673e4142434445464748494a4b4c4d4e4f505152535455565758595a6162636465666768696a6b6c6d6e6f707172737475767778797a303132333435363738392b2fa264697066735822122091ae45f346aa05247fe1df8df73e480fde1d52c6ed713b9241c2b4725990d13764736f6c634300081c0033",
  "linkReferences": {},
  "deployedLinkReferences": {}
}